{
  "address": "0x4f3ebdDdF68f130c3d2Ebcbb603C807256d860Bb",
  "abi": [
    {
      "anonymous": false,
      "inputs": [
        {
          "indexed": false,
          "internalType": "uint8",
          "name": "version",
          "type": "uint8"
        }
      ],
      "name": "Initialized",
      "type": "event"
    },
    {
      "anonymous": false,
      "inputs": [
        {
          "indexed": true,
          "internalType": "address",
          "name": "user",
          "type": "address"
        }
      ],
      "name": "NewAcceptVote",
      "type": "event"
    },
    {
      "anonymous": false,
      "inputs": [
        {
          "indexed": true,
          "internalType": "address",
          "name": "user",
          "type": "address"
        }
      ],
      "name": "NewRejectVote",
      "type": "event"
    },
    {
      "anonymous": false,
      "inputs": [
        {
          "indexed": false,
          "internalType": "bool",
          "name": "accepted",
          "type": "bool"
        }
      ],
      "name": "VotingFinished",
      "type": "event"
    },
    {
      "inputs": [],
      "name": "accept",
      "outputs": [],
      "stateMutability": "nonpayable",
      "type": "function"
    },
    {
      "inputs": [],
      "name": "acceptedAmount",
      "outputs": [
        {
          "internalType": "uint256",
          "name": "",
          "type": "uint256"
        }
      ],
      "stateMutability": "view",
      "type": "function"
    },
    {
      "inputs": [],
      "name": "daoContract",
      "outputs": [
        {
          "internalType": "contract Dao",
          "name": "",
          "type": "address"
        }
      ],
      "stateMutability": "view",
      "type": "function"
    },
    {
      "inputs": [],
      "name": "initTimestamp",
      "outputs": [
        {
          "internalType": "uint256",
          "name": "",
          "type": "uint256"
        }
      ],
      "stateMutability": "view",
      "type": "function"
    },
    {
      "inputs": [
        {
          "internalType": "address payable",
          "name": "_daoContract",
          "type": "address"
        },
        {
          "internalType": "bytes32",
          "name": "_nodeHash",
          "type": "bytes32"
        }
      ],
      "name": "initialize",
      "outputs": [],
      "stateMutability": "nonpayable",
      "type": "function"
    },
    {
      "inputs": [],
      "name": "isAccepted",
      "outputs": [
        {
          "internalType": "bool",
          "name": "",
          "type": "bool"
        }
      ],
      "stateMutability": "view",
      "type": "function"
    },
    {
      "inputs": [],
      "name": "isOver",
      "outputs": [
        {
          "internalType": "bool",
          "name": "",
          "type": "bool"
        }
      ],
      "stateMutability": "view",
      "type": "function"
    },
    {
      "inputs": [],
      "name": "nodeHash",
      "outputs": [
        {
          "internalType": "bytes32",
          "name": "",
          "type": "bytes32"
        }
      ],
      "stateMutability": "view",
      "type": "function"
    },
    {
      "inputs": [],
      "name": "reject",
      "outputs": [],
      "stateMutability": "nonpayable",
      "type": "function"
    },
    {
      "inputs": [],
      "name": "rejectedAmount",
      "outputs": [
        {
          "internalType": "uint256",
          "name": "",
          "type": "uint256"
        }
      ],
      "stateMutability": "view",
      "type": "function"
    }
  ],
  "transactionHash": "0xe5fdbd7a2b588aafa975351701d2ac1acba41319af4a4a6a1049b37138f7d94e",
  "args": [],
  "numDeployments": 2,
  "solcInputHash": "fbaf5d819f9bea87ebe47be23d5d3272",
  "bytecode": "0x60808060405234610016576108d5908161001c8239f35b600080fdfe608060408181526004918236101561001657600080fd5b600092833560e01c918263184c21af1461071057508163281ad7eb146106f15781632852b71c146104cd5781634a7ffcbc146104a45781634dc415de146102c65781635051a5ec1461029f5781637358c57a14610280578163b4bd9e2714610259578163be13f47c146100b4575063f6e9efd41461009357600080fd5b346100b057816003193601126100b0576020906006549051908152f35b5080fd5b905034610255578160031936011261025557356001600160a01b03811691908290036102555782549160ff808460081c161591828093610249575b8015610233575b6100ff9061083c565b60ff19808616600190811788559584610222575b5086549086848360081c16159161013a8380978895610215575b81156101f4575b5061083c565b83161788556101e3575b504285556bffffffffffffffffffffffff60a01b60025416176002556101ac575b602435600655610173578280f35b825461ff0019168355519081527f7f26b83ff96e1f2b6a682f133852f6798a09c465da95921460cefb384740249890602090a138808280f35b61ff001984541684557f7f26b83ff96e1f2b6a682f133852f6798a09c465da95921460cefb384740249860208351858152a1610165565b61ffff191661010117865538610144565b905083303b159182610209575b505038610134565b87161490508338610201565b905083818716109061012d565b61ffff191661010117875538610113565b50303b1580156100f657508482166001146100f6565b506001828616106100ef565b8280fd5b5050346100b057816003193601126100b05760209060ff60025460a01c1690519015158152f35b5050346100b057816003193601126100b0576020906001549051908152f35b5050346100b057816003193601126100b05760209060ff60025460a81c1690519015158152f35b919050346102555782600319360112610255576102eb60ff60025460a01c161561072b565b3383526020906005825261030560ff82862054161561076a565b33845260058252808420600160ff198254161790556002549260018060a01b0384169085600154833b156100b05784519063017d30f760e71b8252838201528181602481875afa801561048657610490575b5050813b156104825782516360435d7760e01b8152338282015286908181602481875afa8015610486579086939291610469575b5050602461039982546107fa565b9182815585519485938492337fa43ab1d993dddc74c1625ebc4d49cb80c3360cb09a75783e3de34c17fd3418f58d80a2630824dda560e21b84528301525afa90811561045f578591610432575b506103ef578380f35b61ffff60a01b19909216600160a01b1760025590518281527fa645a33a6706739d95d9785acab71f06d2b89c02d601ef8c380e6fe4ee5223b99190a13880808380f35b6104529150833d8511610458575b61044a81836107d8565b81019061081f565b386103e6565b503d610440565b82513d87823e3d90fd5b610475919293506107ae565b610482578390863861038b565b8580fd5b85513d84823e3d90fd5b610499906107ae565b610482578538610357565b5050346100b057816003193601126100b05760025490516001600160a01b039091168152602090f35b9050346102555782600319360112610255576104f160ff60025460a01c161561072b565b3383526020906005825261050b60ff84862054161561076a565b33845260058252828420805460ff1916600190811790915560025490546001600160a01b038216929190833b156106ed5785519063017d30f760e71b8252838201528681602481875afa80156106e3576106cc575b5090829186933b1561068d5785516360435d7760e01b815233838201528481602481875afa9081156106ae5785916106b8575b50506105a06003546107fa565b80600355865190337f197fc30908874e1934e54d3c15ac16d9bdb26afab8eb3fdde47f777278d18ba38780a2634a988b7f60e01b8252838201528581602481875afa9081156106ae578591610691575b506105f9578380f35b61ffff60a01b191661010160a01b17600255600654823b1561068d5760248492838851958694859363194a60c360e11b85528401525af180156106835761066f575b50507fa645a33a6706739d95d9785acab71f06d2b89c02d601ef8c380e6fe4ee5223b9915160018152a13880828180808380f35b610678906107ae565b61025557823861063b565b84513d84823e3d90fd5b8380fd5b6106a89150863d88116104585761044a81836107d8565b386105f0565b87513d87823e3d90fd5b6106c1906107ae565b61068d578338610593565b6106da9096919392966107ae565b94909138610560565b86513d89823e3d90fd5b8680fd5b5050346100b057816003193601126100b0576020906003549051908152f35b84913461025557826003193601126102555760209250548152f35b1561073257565b60405162461bcd60e51b815260206004820152601060248201526f566f74696e673a206973206f7665722160801b6044820152606490fd5b1561077157565b60405162461bcd60e51b8152602060048201526015602482015274566f74696e673a20616c726561647920766f74652160581b6044820152606490fd5b67ffffffffffffffff81116107c257604052565b634e487b7160e01b600052604160045260246000fd5b90601f8019910116810190811067ffffffffffffffff8211176107c257604052565b60001981146108095760010190565b634e487b7160e01b600052601160045260246000fd5b90816020910312610837575180151581036108375790565b600080fd5b1561084357565b60405162461bcd60e51b815260206004820152602e60248201527f496e697469616c697a61626c653a20636f6e747261637420697320616c72656160448201526d191e481a5b9a5d1a585b1a5e995960921b6064820152608490fdfea264697066735822122080727f0eb5b953425c0802994a6458851a6b1ed0c3f47296a82182521f4d5c9364736f6c63430008110033",
  "devdoc": {
    "kind": "dev",
    "methods": {},
    "version": 1
  },
  "userdoc": {
    "kind": "user",
    "methods": {},
    "version": 1
  },
  "storageLayout": {
    "storage": [
      {
        "astId": 6,
        "contract": "contracts/votings_factory/votings/UnblockNodeVoting.sol:UnblockNodeVoting",
        "label": "_initialized",
        "offset": 0,
        "slot": "0",
        "type": "t_uint8"
      },
      {
        "astId": 9,
        "contract": "contracts/votings_factory/votings/UnblockNodeVoting.sol:UnblockNodeVoting",
        "label": "_initializing",
        "offset": 1,
        "slot": "0",
        "type": "t_bool"
      },
      {
        "astId": 3393,
        "contract": "contracts/votings_factory/votings/UnblockNodeVoting.sol:UnblockNodeVoting",
        "label": "initTimestamp",
        "offset": 0,
        "slot": "1",
        "type": "t_uint256"
      },
      {
        "astId": 3396,
        "contract": "contracts/votings_factory/votings/UnblockNodeVoting.sol:UnblockNodeVoting",
        "label": "daoContract",
        "offset": 0,
        "slot": "2",
        "type": "t_contract(Dao)1972"
      },
      {
        "astId": 3398,
        "contract": "contracts/votings_factory/votings/UnblockNodeVoting.sol:UnblockNodeVoting",
        "label": "isOver",
        "offset": 20,
        "slot": "2",
        "type": "t_bool"
      },
      {
        "astId": 3400,
        "contract": "contracts/votings_factory/votings/UnblockNodeVoting.sol:UnblockNodeVoting",
        "label": "isAccepted",
        "offset": 21,
        "slot": "2",
        "type": "t_bool"
      },
      {
        "astId": 3402,
        "contract": "contracts/votings_factory/votings/UnblockNodeVoting.sol:UnblockNodeVoting",
        "label": "acceptedAmount",
        "offset": 0,
        "slot": "3",
        "type": "t_uint256"
      },
      {
        "astId": 3404,
        "contract": "contracts/votings_factory/votings/UnblockNodeVoting.sol:UnblockNodeVoting",
        "label": "rejectedAmount",
        "offset": 0,
        "slot": "4",
        "type": "t_uint256"
      },
      {
        "astId": 3408,
        "contract": "contracts/votings_factory/votings/UnblockNodeVoting.sol:UnblockNodeVoting",
        "label": "votedUsers",
        "offset": 0,
        "slot": "5",
        "type": "t_mapping(t_address,t_bool)"
      },
      {
        "astId": 3768,
        "contract": "contracts/votings_factory/votings/UnblockNodeVoting.sol:UnblockNodeVoting",
        "label": "nodeHash",
        "offset": 0,
        "slot": "6",
        "type": "t_bytes32"
      }
    ],
    "types": {
      "t_address": {
        "encoding": "inplace",
        "label": "address",
        "numberOfBytes": "20"
      },
      "t_bool": {
        "encoding": "inplace",
        "label": "bool",
        "numberOfBytes": "1"
      },
      "t_bytes32": {
        "encoding": "inplace",
        "label": "bytes32",
        "numberOfBytes": "32"
      },
      "t_contract(Dao)1972": {
        "encoding": "inplace",
        "label": "contract Dao",
        "numberOfBytes": "20"
      },
      "t_mapping(t_address,t_bool)": {
        "encoding": "mapping",
        "key": "t_address",
        "label": "mapping(address => bool)",
        "numberOfBytes": "32",
        "value": "t_bool"
      },
      "t_uint256": {
        "encoding": "inplace",
        "label": "uint256",
        "numberOfBytes": "32"
      },
      "t_uint8": {
        "encoding": "inplace",
        "label": "uint8",
        "numberOfBytes": "1"
      }
    }
  }
}